:1016FD004200C400004100BF614200F800014200F9
:0D170D00FA00014200C0000042011400007B
:1011AD0043AF01D2ACD2AFD2AED2A9D2AB7598506B
:1011BD00759E84759D084389025389FE438910539A
:1011CD0089DF7FD07E0712000E43881012158075BF
:1011DD00EFA4E5D8540F4403F5D89000C4E0700295
:1011ED00A3E0600A12128DE49000C4F0A3F0121473
:1011FD008E9000F8E07004A3E064087026E5B0203E
:10120D00E3219000C0E07002A3E0600CE49000C008
:10121D00F0A3F043A080800B9000C0E4F0A304F095
:10122D0053A07F9000FAE07004A3E064107026E5EF
:10123D00B020E421900114E07002A3E0600CE49072
:10124D000114F0A3F043A040800B900114E4F0A32F
:10125D0004F053A0BFE5B05408FF9000F8E4F0A3EC
:10126D00EFF0E5B05410FFA3E4F0A3EFF0900151BF
:10127D00E0FF90014FE0FCA3E0FD120F9B0211E790
:1015EF0025642C25642C25642C25642C25642C253E
:1015FF00642C25642C25642C25642C25642C2564EF
:10160F002C25640025642025642025642025642072
:10161F002564202564202564202564202564202549
:0C162F006420256420256400212564004F
:1017D500E4FDFCC3ED9FEE6480F8EC64809850074F
:0717E5000DBD00010C80ECBA
:0117EC0022DA
:10176000AD07AC06EC1202D97B737A68790178C0B8
:1017700012003D7B6F7A127983783C120237E4FBCA
:0D178000FAF9783F12003D1203120217D54E
:1016C600AD07AC06EC1202D9E4FBFA797A7844123B
:1016D60002377B737A68790178C012003D7B6F7A96
:1016E600127983783C120237E4FBFAF9783F12004C
:0716F6003D1203120217D59B
:080003008F993099FDC299228A
:1016810090008FEBF0A3EAF0A3E9F0A3ECF0A3ED57
:01169100F068
:10169200E4FDFCD3900093E09DEC6480F89000920E
:1016A200E0648098401D90008FE0FBA3E0FAA3E085
:1016B200F98D828C8312056FFF1200030DBD0001AC
:0316C2000C80D0C9
:0116C5002202
:03002300020E5C6E
:100E5C00C0E0C0F0C083C082C0D075D000C000C05C
:0D0E6C0001C002C003C004C005C006C007DD
:100E79003098339000C2E0FEA3E0FF24C6F58274E7
:100E8900003EF583E599F074C62FF58274003EF5AE
:100E990083E0900000F0C2989000C3E004F070066F
:100EA9009000C2E004F0900000E064216014C39057
:100EB90000C3E094329000C2E06480948050030241
:100EC9000F8090000474FFF0A37415F0A374EFF081
:100ED900A37401F0A37400F0A374FCF0A37401F0EF
:100EE900A37400F0A374FEF0A37401F0A37401F0DD
:100EF900A37400F0A37401F0A37401F0A37402F0C9
:100F0900A37401F0A37401F0A37404F0A37401F0B5
:100F1900A37401F0A37406F0A37401F0A37401F0A3
:100F2900A37408F0A37401F0A37401F0A3740AF088
:100F3900A37401F0A37401F0A3740CF0A37401F07D
:100F4900A37401F0A3740EF0A37401F0A37401F06B
:100F5900A37410F0A37401F0A37401F0A37412F048
:100F69007B017A0079C6120B8B9000C2E4F0A3F0E2
:070F79009000C4F0A304F096
:100F8000D007D006D005D004D003D002D001D000C5
:0B0F9000D0D0D082D083D0F0D0E0326F
:10128D0090009274FFF0A37416F0A37413F0900005
:10129D00FCE0FFA3E0900095CFF0A3EFF09000FEEF
:1012AD00E0FFA3E0900097CFF0A3EFF0900100E0F6
:1012BD00FFA3E0900099CFF0A3EFF0900102E0FFC3
:1012CD00A3E090009BCFF0A3EFF0900104E0FFA30B
:1012DD00E090009DCFF0A3EFF0900106E0FFA3E0BA
:1012ED0090009FCFF0A3EFF0900108E0FFA3E090F6
:1012FD0000A1CFF0A3EFF090010AE0FFA3E0900072
:10130D00A3CFF0A3EFF090010CE0FFA3E09000A5B8
:10131D00CFF0A3EFF090010EE0FFA3E09000A7CF78
:10132D00F0A3EFF0900110E0FFA3E09000A9CFF043
:10133D00A3EFF0900112E0FFA3E09000ABCFF0A37C
:10134D00EFF07B017A0179161206E47B017A0179BF
:08135D00167D327C00021681AE
:10173100121510900095EEF0A3EFF090009274FF57
:10174100F0A37416F0A37437F07B017A01791612B5
:0F17510006E47B017A0179167D057C0002168182
:03001B0002163B8F
:10163B00C0E0C0F0C083C082C0D075D000C000C075
:10164B0001C002C003C004C005C006C00790015111
:10165B00E0FF121731758BF4758DB1D007D006D022
:10166B0005D004D003D002D001D000D0D0D082D08E
:06167B0083D0F0D0E03244
:04001E004025640015
:10171A0041015161450148000000000042014D00AD
:06172A000042014F000027
:10158000C294C295C296C2979000FE7401F0A374F3
:1015900006F0A37401F0A37415F0A37401F0A37412
:1015A00026F0A37401F0A37437F0A37401F0A374C0
:1015B0004AF0A37401F0A3745DF0A37401F0A37466
:1015C00072F0A37401F0A37488F0A37401F0A37403
:1015D0009FF0A37401F0A374B8F09000FC7401F0C4
:0F15E000A374D2F09001127401F0A374EEF02204
:10148E009001517461F0C2B5D2B6D2B720940374F4
:10149E0031F02095069001517434F020960690019B
:1014AE00517437F0209706900151742AF0D2B5C2CC
:1014BE00B6D2B72094069001517432F02095069062
:1014CE0001517435F02096069001517438F0209732
:1014DE00069001517430F0D2B5D2B6C2B720940640
:1014EE009001517433F02095069001517436F0201E
:1014FE0096069001517439F020970690015174238D
:02150E00F022C9
:0C000E00C3E49FFFE49EAD078D8AF58CD3
:01001A0022C3
:03000B000217B425
:1017B400C0E0C0D075D000C005C006C007D2DC7F31
:1017C400D07E0712000ED007D006D005D0D0D0E0CE
:0117D40032E2
:0300330002136550
:10136500C0E0C0F0C083C082C0D075D000C000C04E
:0D13750001C002C003C004C005C006C007CF
:10138200E4FCAFD9AD07E5DA540FFF90014FE0FB63
:10139200A3E090014DCBF0A3EBF0EFA3F0A3E4F0B8
:1013A200E02DF090014FE03400F0E0FEA3E0FF906A
:1013B200014DE06E7003A3E06F602A90009274FF0B
:1013C200F0A37400F0A3741EF0A3EEF0A3EFF07B81
:1013D200017A0179481206E47B017A0179487D0598
:0513E2007C00121681E1
:1013E700D007D006D005D004D003D002D001D0005A
:0B13F700D0D0D082D083D0F0D0E03204
:080F9B0090008FECF0A3EDF0D3
:100FA300E4FDFCEFB431089000FEE0FCA3E0FDEFAC
:100FB300B43208900100E0FCA3E0FDEFB4330890E5
:100FC3000102E0FCA3E0FDEFB43408900104E0FC6F
:100FD300A3E0FDEFB43508900106E0FCA3E0FDEFCC
:100FE300B43608900108E0FCA3E0FDEFB4370890A5
:100FF300010AE0FCA3E0FDEFB4380890010CE0FC2B
:10100300A3E0FDEFB4390890010EE0FCA3E0FDEF8F
:10101300B42A08900110E0FCA3E0FDEFB43008907F
:1010230000FCE0FCA3E0FDEFB42308900112E0FC18
:10103300A3E0FDEFB46103E4FCFDED4C7003F5AEFA
:1010430022E5AF54BFFFE5AF54E34FF5AF75AE13E1
:10105300AE04AF05E41202D9A804A905AA06AB079A
:101063007F507EBB7D287C4B120237120312900007
:1010730091EEF0A3EFF090008FE0FCA3E0FDE4120B
:1010830002D9C004C005C006C007900091E0FCA3CC
:10109300E0FDE41202D9D003D002D001D000120146
:1010A3002EE4FBFA79807845120237120312AD075A
:1010B300AC06900091E0FEA3E0F5B3EEF5B48DB17C
:0310C300ECF5B297
:0110C6002207
:10151000EF120635157323156E2A156930153C3107
:10152000154132154633154B3415503515553615C2
:101530005A37155F381564390000157C9000FE801D
:10154000359001008030900102802B9001048026AC
:101550009001068021900108801C90010A8017905C
:10156000010C801290010E800D9000FC800890010B
:10157000108003900112E0FEA3E0FF22E4FEFF22B0
:1000360002037EE86480F8E933E83360110460F077
:10004600ED33EC337009E8FCE9FDEAFEEBFF220430
:1000560060DED3EB9FEA9EE99DE8C2E78CF0C2F72B
:1000660095F0400CE8CCF8E9CDF9EACEFAEBCFFBF7
:1000760012034985D0F05804700320D5B3E8047004
:10008600075002B2D502038892D5EC0460F7E4CC9F
:10009600C0E0C398F8603B94186008400DD0E0FBC0
:1000A600020360E4FBFAC9FC8028E830E406E4C9F0
:1000B600FBE4CAFCE830E305E4C9CACBFCE8540714
:1000C6006010F8C3E913F9EA13FAEB13FBEC13FC1F
:1000D600D8F130F52FC3E49CFCEF9BFFEE9AFEEDC2
:1000E60099FDD0E0FBEF4E4D4C701222DB0302036C
:1000F60085EC2CFCEF33FFEE33FEED33FDED30E700
:10010600EB020360EF2BFFEE3AFEED39FDD0E0FB8C
:1001160050130BBB0003020388ED13FDEE13FEEF35
:0801260013FFEC13FC0203605F
:10012E00EC4D6011E8497017ED33EC3304600DE4CB
:10013E00FCFFFEFD22E933E8330470F802037E1261
:10014E00034958046009E4CC248150062850090262
:10015E000388284003020385C0E0EB4A7044B9804F
:10016E0006D0E0FB020374EF4E701CBD8008EBFF5F
:10017E00EAFEE9FD80EBE98DF0A4FEE5F002021740
:10018E00E9CDF9EAFEEBFFEF89F0A4FCE5F0CE89AC
:10019E00F0A42EFFE435F0CD89F0A42DFEE435F069
:1001AE008067EF4E7005BD80D780C3EF8BF0A4AC97
:1001BE00F0EE8BF0A42CFCE435F0F8EF8AF0A42CD2
:1001CE00E5F038FCE433CB8DF0A42CFCE5F03BF8E5
:1001DE00EE8AF0A42CFCE5F038F8E433CF89F0A4D5
:1001EE002CFCE5F038CF3400CE89F0A42FFFE5F0DB
:1001FE003EFEE433C98DF0A42EFEE5F039CD8AF033
:10020E00A42FFFE5F03EFEE43DFD33D0E0FB5007AA
:10021E000BBB000F020388EC2CFCEF33FFEE33FE1A
:06022E00ED33FD02036048
:10023400020388EC5D046005E85904700302037E40
:10024400120349580460F6EC4860F2EC7004FDFEB9
:10025400FF22C860DB2481C85009C398600250069D
:100264000203859850CAF582E9294B4A7005AB828E
:1002740002037475F0007C1A7880C3EF9BEE9AED4C
:1002840099400DC3EF9BFFEE9AFEED99FDE842F015
:10029400DC23ACF0D0E0FFD0E0FED0E0FDAB822068
:1002A400E7101BEB60BAEC2CFCEF33FFEE33FEEDF2
:1002B40033FD020360E803F830E705C0F075F00091
:1002C400EF2FFFEE33FEED33FD40B830E7C280AAD6
:1002D40075F020800E75F010800575F0087D007EA5
:1002E400007F003392D530D5031205CDEC33401096
:1002F400EF33FFEE33FEED33FDEC33FCD5F0ED22AE
:0E030400E5F0247EA2D513CC92E7CDCEFF22E9
:10031200EDD2E7CD33EC3392D524814006E4FFFEE3
:10032200FDFC22FCE4CFCECDCC24E0501174FF8042
:10033200EDC3CC13CCCD13CDCE13CECF13CF0470DF
:07034200F030D5DE0205CD0D
:10067F00E53A2492F582E43400F583E0053A2290BE
:10068F00008F302403900092E475F0011205FE02F2
:10069F000556201DE97F2ED21D8018EF540F249090
:1006AF00D43440D4FF30210BEF24BFB41A005003D1
:1006BF002461FFE53B6002153B053EE53E700205F8
:1006CF003D30240E90008FE475F0011205FEEF020D
:1006DF00059C02178D7403D2248003E4C224F53ADB
:1006EF0090008F12062CE4F53BF53DF53EE53B609F
:1006FF00077F201206C280F5753CFFC21EC21DC2C5
:10070F001FC220C222C223C22512068EFF700D30D7
:10071F0024057F001206D3AF3EAE3D22B4255FC243
:10072F00D5C22112068EFF24D0B40A00501A75F0DC
:10073F000A783B30D50508B6FF0106C6A426F62079
:10074F00D5047002D22080D924CFB41A00EF500400
:10075F00C2E5D2210209C5D21E80C6D21D80C0D2E9
:10076F001F80BCD2D580BAD22280B47F201206C29D
:10077F00201F077401B53B0040F112067FFF1206E0
:10078F00C20206FCD225D223809512067FFB1206E9
:10079F007FFA12067FF94A4B700679C37A0A7BFFFC
:1007AF00201F2EE53B602A7E008E82758300120586
:1007BF006F60060EEE653C70F0C2D5EBC0E0EAC08C
:1007CF00E0E9C0E0EE120A26D0E0F9D0E0FAD0E07E
:1007DF00FB120556FF60AAEBC0E0EAC0E0E9C0E0FB
:1007EF001206C2D0E02401F9D0E03400FAD0E0FBC9
:1007FF00E53C0460DCD53CD98087D21F80A2120A69
:10080F000860F7E53C700104120393A93C600DE505
:10081F003C600914F53C120AB0EF60F3EA30E702CE
:10082F00F404C3995079EAF4253C0430E701E40459
:10083F00F53C800D120A0860C1EA053C253C120305
:10084F0093EA9000BEF030E701E4253C04D53C0468
:10085F0020220114120A26E4C0E0120AB09000BE52
:10086F00E0601320E70714F01206AA802204F0D0EC
:10087F00E014C0E07F001206AAE53C60071206A153
:10088F00153C800B3022031206A1D0E00206FCD0EB
:10089F00E00480C4120A08609EE53C0412039390A2
:1008AF0000BEEAF0E53C2022026001042404120A93
:0108BF002612
:1008C00074FF04C0E0120AB01206AAE53C2022021E
:1008D00060031206A1D0E0B53CE87F451206B49053
:1008E00000BEE07F2B30E7047F2DF404C0E0120649
:1008F000C2D0E075F00A84C0F01206ABD0E0120658
:10090000AB0206FC791080027908C223C225800858
:10091000D2D5790A8004790AC2D5E53C047002F583
:100920003CE4FAFDFEFF12067FFC7B08201E13123A
:10093000067FFD7B10301D0A12067FFE12067FFF28
:100940007B20EC3382D592D55013C3E4301D069F33
:10095000FFE49EFEE4201E039DFDE49CFCE4CBF836
:10096000C21EEC700CCFCECDCCE824F8F870F3802A
:1009700017C3EF33FFEE33FEED33FDEC33FCEB3307
:10098000FB994002FB0FD8E9EB301E05F8D0E0C41C
:1009900048B21EC0E00AEC4D4E4F78207B0070C27A
:1009A000EAB53C0040BCC0E0120A28D0F0D0E020FC
:1009B0001E04C4C0E0C4B21EC0F01206ABD0F0D515
:1009C000F0EB0206FC120635079953090458076A32
:1009D0004C07664209084F091044091049077F4334
:1009E00009165508434608A345080D470AE3500772
:1009F0006E2D07722E07952B0776230793200ACCBE
:100A00002A072E480000078DE53CB4FF03753C061D
:100A100012067FFC12067FFD12067FFE12067FFF84
:100A20009000B70203D0790AA2D520201430220901
:100A3000B910020404B9080104A2D5202302500110
:100A400004201F68921FB53B005034C0E07F203067
:100A500020197F30A21F72237222500F120A7FC208
:100A60001FC223C222C2257F30800F302203E9C07B
:100A7000E01206C2302203D0E0F9D0E0B53BCC3022
:100A800022177F30B9100C1206C27F583021077F21
:100A9000788003B908031206C2301F057F2D0206B5
:100AA000C27F202025F87F2B2023F322921F80CFA6
:100AB0007F00B40700500B24B7F582E43400F583BF
:100AC000E0FF22286E756C6C2900D21E12067F3062
:100AD0001EF8C21E783B30D50108F602072E2D50B5
:100AE00043495812067F2403B405004001E4900AEC
:100AF000DE931206B3743A1206B3D220753B040299
:020B00000904E6
:100B0200E52530030104F823282404F582E43400A7
:100B1200F58322900001300303900004E475F00194
:100B22001205FE02055660EAC5297002152814C591
:100B320029200304FF02181590000174FFF5F0024A
:100B42000615FF021801E5266006D526037F00225E
:100B520020030F1217EDEF60080529E52970020541
:100B620028229000011205F5120556FF60E8900058
:100B720001E475F0011205FE80DC120B52EFC0E0B9
:100B8200120B44D0E040F3809DD2038002C2039056
:100B9200000112062CE4F527F525F528F52975261E
:100BA20000C202C200C201C204120B15FF7005AFDF
:100BB200277E0022B42530120B15FF24D0B40A0080
:100BC200500C75F00AC526A42526F52680E924CF07
:100BD200B41A00EF5002C2E5020E28D20180D8D228
:100BE2000080D4D20480D0EF120B445008120B7C48
:100BF200EF600E80A9EFC0E0120B52D0E06F609E52
:100C0200EF6074120B2880A7120B52EF6069E52681
:100C1200700705268003120B52EF601420040E1297
:100C22000B02E475F0011205FEEF12059CD526E6D3
:100C32002004040525052780BA120B48EFC0E012F4
:100C42000B44D0E05004120B28E4FF20040E120BD8
:100C520002E475F0011205FEEF12059CEF70DA2036
:100C6200040405250527808BE52660020526120B64
:100C72007C120B48EF70C6300304E4120B28E52700
:100C82006003020BB17EFF7FFF22E526600205268C
:100C9200120B7CD206D205120B48EF30060260D747
:100CA200C0E0120B28D0E0AC2AAD2BAE2CAF2D1237
:100CB20010DA8C2A8D2B8E2C8F2D5007120B52C2DC
:100CC2000580D42004102005020527120B0212050C
:030CD200F5052500
:100CD5001205DB020BA0D0E0809A7900800A79101A
:100CE500800679088002790AD205E5266002052684
:100CF500E9C0E0120B7CEF60DD120B52BF2D04D270
:100D0500028003BF2B09120B7CEF60CA120B48D07F
:100D1500E0B40A028033B40802802EBF3027700287
:100D25007408C205C0E0120B48D0E0BF780280030A
:100D3500BF58160526D526028007D52604D205807C
:100D45000B741080197002740ABF000AEFF8E4FCF6
:100D5500FDFEFF020DDBC0E0EF120B28D0E0F9E449
:100D6500FCFDFEFFE9C0E0ECC0E0EDC0E0EEC0E058
:100D7500EFC0E0120B48EFF8D0E0FFD0E0FED0E086
:100D8500FDD0E0FCD0F0E8604DB461004007B47BD5
:100D9500005002C2E524D0503DFA24F6500724F94C
:100DA5005034240AFAEAB5F000502BCFA9F0A42F4D
:100DB500FF92D5E9C5F0CEA4A2D53EFE92D5E9C5F0
:100DC500F0CDA4A2D53DFD92D5E9C5F0CCA4A2D520
:100DD5003CFCC205808EE8C0E020042A20050805F9
:100DE500273002031205CD120B021205F505252049
:100DF500000B20010DEE8FF01205AE80091205DB08
:100E05008004EF12059CD0E0120B28020BA02004F1
:100E150010120B021205F50525E5288529F01205A6
:100E2500AE80E81206350C6A530CE3580BE14C0B07
:100E3500DD420BB9480CE74F0CEB440C0A430CDFC1
:100E4500490CEB550C8C460C8C450C8C470BE52A54
:070E55000E134E00000BE933
:10034900E9D2E7C933E833F892D5EDD2E7CD33ECFA
:0703590033FC5002B2D52273
:10036000EC30E7100FBF000C0EBE00080DBD0004FE
:100370000BEB6014A2D5EB13FCED92E7FD2274FFAA
:10038000FCFDFEFF22E480F8A2D574FF13FC7D8003
:03039000E480EF17
:10039300F920E73624F950037907E4F42402FBE556
:1003A30082158270021583DBF6E024FB501BE960A3
:1003B30014E4F0E582158270021583E004F0B40AB8
:0D03C30008E4F0D9EE7401F00A22C2D52240
:1003D000ED33EC3392D5FA602AB4FF33EDC2E77BFC
:1003E000FF60067A0379F5E4227A0379FE20D504CA
:1003F0007A0379F9224E614E002B494E46002D4971
:100400004E4600E47A08F0A3DAFC7B00740722C0B1
:1004100083C082ECC0E0EDC0E0EEC0E0EFC0E0EAF7
:1004200075F010A4CAABF075F04DA42BFBE435F0C9
:10043000FCEA2410FAEB34C5FBEC34D9FCEDC2E73E
:10044000FF75F056A4F42411C5F0F434C58FF0A460
:100450002AE5F03BE43CF020E714120516D0E0FF5B
:10046000D0E0FED0E0FDD0E0FC1202378014F404AE
:10047000120516D0E0FFD0E0FED0E0FDD0E0FC1287
:10048000012ED082D083E0FAEDD2E7CD33EC3324D5
:1004900082FBE4C3CF33CFCE33CECD33CD33DBF3CA
:1004A0007B0775F00A846004F0A31B0AE5F0F0A353
:1004B0008FF0740AA4FFACF08EF0740AA42CFEAC8A
:1004C000F050010C8DF0740AA42CFDE435F0F0A37B
:0504D000DBDE740722D1
:1010C700C207C208C209C20AF9E4F52EF52FFCFDD2
:1010D700FEFFE91006EA20090CB42D04D209D32239
:1010E700B42B02D32224D0504794095041240A300C
:1010F7000A15F8852FF0740AA42872E74051C5F045
:10110700704D85F02FD322D208C0E0E4FBFA792096
:10111700784112012EECF8EDF9EEFAEFFBD0E0FC86
:10112700E41202DE12003D3007B4152ED322240A42
:10113700200A20B4FE0720071AD207D32224EB6027
:101147000424E0700EA2099207D20AC209D322C36F
:1011570002037EE4300A0BE52F300902F404A207EC
:1011670092093008EA252E20D2E5A2E7920A50021A
:10117700F404B4260050D8CCC0E0EDC0E0EEC0E0E7
:10118700EFC0E0EC120516D0E0FFD0E0FED0E0FDA6
:10119700D0E0FC200A0512012E8003120237300925
:0611A700031204D5C3226F
:1004D500ED33EC33600A047003BD8004ECB2E7FC35
:0104E50022F4
:1004E6003F8000004120000042C80000447A00001E
:1004F600461C400047C35000497424004B189680A0
:100506004CBEBC205A0E1BCA6753C21C749DC5AE96
:10051600FB60065407601C2323120544EB54386025
:100526000912053012053F12012EECF8EDF9EEFA2C
:10053600EFCB22EB12053F80F1543803241C9004C4
:10054600E6FE93FC0EEE93FD0EEE930ECE93FF2287
:03000000021402E5
:0C140200787FE4F6D8FD75813E021449A5
:10055600BB010689828A83E0225002E722BBFE02A3
:09056600E32289828A83E49322D6
:10056F00BB010CE58229F582E5833AF583E0225041
:10057F0006E92582F8E622BBFE06E92582F8E2228B
:0D058F00E58229F582E5833AF583E49322A5
:10059C00BB010689828A83F0225002F722BBFE013E
:0205AC00F32238
:1005AE00BB010A89828A83F0E5F0A3F0225006F798
:0F05BE0009A7F01922BBFE06F3E5F009F3192295
:0E05CD00C3E49FFFE49EFEE49DFDE49CFC223F
:1005DB00BB010789828A830206675005E9F8020688
:0A05EB005BBBFE05E9F8020673226F
:0905F500E0FBA3E0FAA3E0F92207
:1005FE00F8E0FBA3A3E0F925F0F0E5821582700286
:07060E001583E0FA38F02229
:10061500F8E0FBA3A3E025F0F9F0E582158270026E
:070625001583E038FAF02212
:09062C00EBF0A3EAF0A3E9F022CF
:10063500D083D082F8E4937012740193700DA3A354
:1006450093F8740193F5828883E473740293686068
:06065500EFA3A3A380DF68
:10178D00EFB40A07740D121798740A309811A899BE
:10179D00B8130CC2983098FDA899C298B811F630BC
:0717AD0099FDC299F5992294
:1017ED0010260B120026BF0D027F0A02178D9001E5
:0417FD0052E0FF2295
:08181500900152EFF0D22622EF
:10180100EFC394094005EF940E4004EFB42003D3D5
:041811008001C3226D
:10140E000211ADE493A3F8E493A34003F68001F236
:10141E0008DFF48029E493A3F85407240CC8C333DF
:10142E00C4540F4420C8834004F456800146F6DFAE
:10143E00E4800B01020408102040809016FDE47E2B
:10144E00019360BCA3FF543F30E509541FFEE493A3
:10145E00A360010ECF54C025E060A840B8E493A36A
:10146E00FAE493A3F8E493A3C8C582C8CAC583CA95
:10147E00F0A3C8C582C8CAC583CADFE9DEE780BE4D
:0117300000B8
:0C065B00ECF608EDF608EEF608EFF622CB
:0C066700ECF0A3EDF0A3EEF0A3EFF02206
:0C067300ECF208EDF208EEF208EFF222C3
:0A0026003098FDAF99C2987E0022C9
:00000001FF
